:100000000C942A000C9447000C9447000C94470071
:100010000C94DF020C9447000C9447000C944700AA
:100020000C9447000C9447000C9447000C94470034
:100030000C9447000C9428030C9403030C944D0378
:100040000C9447000C9447000C9447000C94470014
:100050000C94470011241FBECFE5D8E0DEBFCDBF12
:1000600010E0A0E6B0E0E2EEFCE002C005900D92E8
:10007000A23FB107D9F722E0A2EFB0E001C01D9284
:10008000AE32B207E1F70E9458030C946F060C944D
:1000900000000F931F93CF93DF9300D0CDB7DEB74F
:1000A0001A82198260E082E00E94E3051A821982B6
:1000B00089819A810797A9F000E010E0E981FA812F
:1000C000EA50FF4F8081F801808380810E943706CB
:1000D00089819A8101969A83898389819A81079778
:1000E00069F70F900F90DF91CF911F910F910895B5
:1000F0008091F500813079F0E091F500F0E0EB506F
:10010000FF4F10828091F50081508093F50080911F
:10011000F500813089F70895E091F500F0E0EB50AB
:10012000FF4F9081981769F0E091F50091E09E0FE4
:100130009093F500F0E0EA50FF4F80831092F400B6
:1001400005C09091F4009F5F9093F4009091F400AB
:10015000933061F4E091F50091E09E0F9093F500EB
:10016000F0E0EA50FF4F80831092F4008091F50098
:10017000873011F40E9478000895CF93C6B3C0FD74
:1001800015C01092F2008091F300E091F200F0E0CF
:1001900094E0899FE00DF11D1124E05AFF4F80810A
:1001A00080932D0280912D020E948C00C5FD16C007
:1001B00081E08093F2008091F300E091F200F0E0A2
:1001C00094E0899FE00DF11D1124E05AFF4F8081DA
:1001D00080932D0280912D020E948C00C4FD16C0D8
:1001E00082E08093F2008091F300E091F200F0E071
:1001F00094E0899FE00DF11D1124E05AFF4F8081AA
:1002000080932D0280912D020E948C00C2FD16C0A9
:1002100083E08093F2008091F300E091F200F0E03F
:1002200094E0899FE00DF11D1124E05AFF4F808179
:1002300080932D0280912D020E948C00CF91089511
:100240001F93CF93DF931092F3008091F3008330DC
:10025000E0F512E0D8E0C0E48091F300813089F04D
:1002600018F08230D9F026C0C1988FE39CE901973D
:10027000F1F700C000000E94BD0088B3812788BB51
:1002800019C0C6988FE39CE90197F1F700C0000000
:100290000E94BD0088B38C2788BB0CC0C3988FE335
:1002A0009CE90197F1F700C000000E94BD0088B3EF
:1002B0008D2788BB0E9449008091F3008F5F809357
:1002C000F3008091F300833038F2DF91CF911F91DA
:1002D0000895089580E090E029E631E0FC01EE0FFA
:1002E000FF1FE35CFE4F318320830196853191052A
:1002F000A9F780E090E029E631E0FC01EE0FFF1F56
:10030000EE0FFF1FE350FF4F3183208313821282D1
:1003100001968031910589F708950FB607FE0CC04C
:10032000F894A1E00AC02F5F3F4F2531310539F421
:10033000AA23D1F078940895A0E020E030E0B9013C
:10034000F901EE0FFF1FE35CFE4F408151814956DA
:10035000514049F7660F771FFB01E35CFE4F918325
:100360008083AA2309F078940895CF930FB607FEEF
:1003700060C0F8942091FD003091FE0028173907E5
:1003800009F44DC0C1E015C0F901EE0FFF1FEE0FDB
:10039000FF1FE350FF4F408151812F5F3F4F4817B0
:1003A000590751F473836283CC2309F44BC07894CA
:1003B00049C021E030E0E8CF2031310529F7209114
:1003C000FD003091FE002956314081F021E030E0FF
:1003D000D901F901EE0FFF1FEE0FFF1FE350FF4F92
:1003E0004081518149565140A1F402C0A0E0B0E0E3
:1003F000AA0FBB1FAA0FBB1FA350BF4F11969C9300
:100400008E9313967C936E931297CC23D9F07894A5
:1004100019C02F5F3F4F20313105D1F613C07093C3
:1004200000016093FF00C3CF709300016093FF0051
:1004300009C02091FD003091FE0028173907A1F373
:10044000C0E0B7CFCF910895CF93DF93F894E091B8
:100450003D01F0913E0181E0E936F80711F478940E
:100460001DC080E090E0DC010196EC01CC0FDD1FA7
:10047000C35CDE4F28813981AA0FBB1FA35CBE4F2E
:1004800011963C932E938431910569F789E691E0AA
:10049000909366018093650178940995DF91CF91DF
:1004A0000895EF92FF920F931F93CF93DF93E12C68
:1004B000F12C09E611E0F701D701AA0FBB1FAA0F23
:1004C000BB1FA350BF4F8D919C918956914009F15C
:1004D000D701AA0FBB1FAA0FBB1FA350BF4F129675
:1004E0008D919C911397019739F0FD018281938141
:1004F0000197938382830DC0EE0FFF1FEE0FFF1F46
:10050000EF01C350DF4F888199810E948D011983CB
:1005100008838FEFE81AF80A20E1E216F10459F691
:10052000DF91CF911F910F91FF90EF9008958CE094
:1005300085BD14BC8AEF83BD80E889BF7894089597
:1005400068EE73E08BEA92E00E94B50195B380E11A
:10055000892785BB089568EE73E080EA92E00E94E7
:10056000B501AC9808950E94200162E370E083EB2E
:1005700092E00E94B50108950E94DC0561E081E0EF
:100580000E94E3058CE690E00E94600668EE73E04E
:100590008DEC92E00E94B50108950E94E20368ECA0
:1005A00070E086ED92E00E94B50108950E94670513
:1005B00068EC70E086ED92E00E94B50108951F920C
:1005C0000F920FB60F9211242F933F934F935F9387
:1005D0006F937F938F939F93AF93BF93EF93FF930B
:1005E0000E945102FF91EF91BF91AF919F918F9126
:1005F0007F916F915F914F913F912F910F900FBE1F
:100600000F901F9018951F920F920FB60F92112402
:100610002F933F934F935F936F937F938F939F930A
:10062000AF93BF93EF93FF930E947C037894FF9165
:10063000EF91BF91AF919F918F917F916F915F915A
:100640004F913F912F910F900FBE0F901F901895D3
:100650001F920F920FB60F9211242F933F934F9337
:100660005F936F937F938F939F93AF93BF93EF931A
:10067000FF930E9495037894FF91EF91BF91AF9102
:100680009F918F917F916F915F914F913F912F91AA
:100690000F900FBE0F901F9018951F920F920FB6DC
:1006A0000F92112478940F900FBE0F901F90189501
:1006B0000E94A0050E9400060E946A010E94970203
:1006C00080EA92E00E948D0183EB92E00E948D010E
:1006D0000E94DC0561E081E00E94E30580E790E094
:1006E0000E94600668E873E18CEB92E00E94B5011D
:1006F000A8950E942402FCCFE0916A0181E08E0F50
:1007000080936A01F0E0E355FE4F80818CB98091BF
:100710006A018F7780936A0190916B0180916A01E1
:10072000981302C05598549A08958CB18D30A9F44D
:10073000E091680181E08E0F80936801F0E0E35959
:10074000FE4F1082809168018F73809368018091C1
:1007500067018F5F809367010895882389F08A304D
:1007600079F0E091680191E09E0F90936801F0E0CC
:10077000E359FE4F8083809168018F7380936801F5
:100780000895F894E0916B0191E09E0F90936B01B6
:10079000F0E0E355FE4F808380916B018F7780936B
:1007A0006B0178940895CF93DF93EC0188818D30AD
:1007B00031F021960E94C10389918D30D9F7DF91E4
:1007C000CF9108950E94DC0561E080E00E94E3057E
:1007D0008FE790E00E94600608950E94DC0561E0CA
:1007E00080E00E94E30585E890E00E94600608959D
:1007F00090916C01923149F018F4943091F01DC041
:100800009934A9F0983539F018C08430C1F482E0E9
:1008100080936C010895853091F483E080936C019E
:100820000895823061F481E080936C0108958A30EC
:1008300031F484E080936C01089510926C01089566
:100840000F931F93CF93DF9310926C010E94DC05EE
:1008500060E081E00E94E3058BE890E00E94600682
:100860006DE081E00E94E30580916701805D0E9458
:100870003706E0916901F0E0E359FE4F808188235B
:10088000A1F1C0E0D0E000E010E0E0916901F0E00B
:10089000E359FE4F8081F8018083F894E09169016B
:1008A00081E08E0F80936901F0E0E359FE4F908163
:1008B00080916C01892780936C01809169018F730D
:1008C0008093690178946C2F82E00E94E305F8011F
:1008D00080810E9437062196E0916901F0E0E3599A
:1008E000FE4F80818111D1CF02C0C0E0D0E0F894EA
:1008F000809169018F5F80936901809169018F7395
:100900008093690178948C2F0E94F80380916C0188
:10091000882359F00E94DC0561E082E00E94E30533
:1009200080916C01805D0E943706DF91CF911F910D
:100930000F910895EF92FF920F931F93CF93DF9340
:100940007C018B01549888E990E00E94D3038DE0EC
:100950000E94C103559A80916C01813021F41DC021
:10096000219719F486C0C3E6D0E0909167019923DE
:1009700039F0909167019150909367010E94200493
:100980002FEF89E698E1215080409040E1F700C0C8
:10099000000090916C01913019F710926C0183EA7C
:1009A00090E00E94D3035498F80180818D3059F073
:1009B0000E94C103F80181918F010E943706F8015E
:1009C00080818D30A9F78DE00E94C103559AFFEF19
:1009D00029E688E1F15020408040E1F700C00000A6
:1009E0005498EA94EF2829F48DEA90E00E94D3030A
:1009F00053C083EC90E00E94D3034EC02197E1F1F5
:100A000080916C018330D9F180916701882339F09E
:100A1000809167018150809367010E942004EFEF6D
:100A2000F9E628E1E150F0402040E1F700C0000085
:100A300080916C01813011F78BE10E94C1035498C1
:100A4000559A0E94DC0560E082E00E94E30584ED97
:100A500090E00E9460068FEF99E6E8E181509040B7
:100A6000E040E1F700C000000E94E20381E090E076
:100A700027C080E090E024C080E090E021C080E0CA
:100A800090E01EC080E090E01BC080916C0183303C
:100A9000C9F3C3E6D0E0B8CF559AFFEF21EE84E06A
:100AA000F15020408040E1F700C0000054988AE1F6
:100AB0000E94C103559A80916C01813031F7BCCFFF
:100AC000DF91CF911F910F91FF90EF90089580914A
:100AD00067018823A1F180916701815080936701AC
:100AE0000E94200480916C018230D9F48BED90E05B
:100AF0000E94D3038DE00E94C1032FEF89E698E1A5
:100B0000215080409040E1F700C0000061EE70E0AD
:100B100081E090E00E949A04892B89F40E94ED0301
:100B2000089580916C01843051F461EE70E081E0B1
:100B300090E00E949A04892B11F40E94ED0308951D
:100B400087E689B910BC579A8AB188618AB980B59D
:100B5000866880BD7894A49A8FEF81BB88B38F6735
:100B600088BB87B38A6487BB089580FF02C0949ACC
:100B700001C0949881FF02C0959A01C0959882FFA8
:100B800002C0969A01C0969883FF02C0979A089572
:100B90009798089592980E94B505939A8FE99FE0DF
:100BA0000197F1F700C0000093988FE99FE001974B
:100BB000F1F700C00000089580E00E94CA0581E0BE
:100BC0000E94CA050895CF93C62F813059F480E85A
:100BD000860F82958F700E94CA058C2F8F700E949D
:100BE000CA050CC0823051F480EC860F82958F705C
:100BF0000E94CA058C2F8F700E94CA05CF9108955C
:100C000080E00E94B5052FEF89EF90E021508040F1
:100C10009040E1F700C0000083E00E94CA058FE128
:100C20009EE40197F1F700C0000083E00E94CA052E
:100C30008FED9BEA0197F1F700C0000083E00E946E
:100C4000CA0582E00E94CA0582E00E94CA0588E0C7
:100C50000E94CA0580E00E94CA058CE00E94CA0575
:100C600080E00E94CA0586E00E94CA050895CF93DD
:100C7000C82F929A82958F700E94B505939A8FE93A
:100C80009FE00197F1F700C0000093988FE99FE083
:100C90000197F1F700C000008C2F8F700E94B505FE
:100CA000939A8FE99FE00197F1F700C000009398B5
:100CB0008FE99FE00197F1F700C00000CF91089500
:100CC000CF93DF93EC018881882331F021960E9435
:100CD000370689918111FBCFDF91CF910895F89468
:020CE000FFCF44
:100CE2003134372A32353830333639234E4F2100EA
:100CF20048656C6C6F204D79204C6F7264210052F4
:100D020065616479004572726F72004D657373207C
:100D1200696E204255463A0041542B434D47463DA9
:100D2200310D0041542B434D47533D0D0044657630
:100D320069636520726561647920746F20776F72D0
:100D42006B0D0048656C6C6F2E20427574746F6E6B
:100D520020310D0053656E64656400415448300DC6
:100D620000222B3338303636373637373939382286
:020D72000D0072
:00000001FF
